{
  "_format": "hh-sol-artifact-1",
  "contractName": "L2StandardERC721Factory",
  "sourceName": "contracts/L2/messaging/L2StandardERC721Factory.sol",
  "abi": [
    {
      "anonymous": false,
      "inputs": [
        {
          "indexed": true,
          "internalType": "address",
          "name": "_l1Token",
          "type": "address"
        },
        {
          "indexed": true,
          "internalType": "address",
          "name": "_l2Token",
          "type": "address"
        }
      ],
      "name": "StandardL2ERC721Created",
      "type": "event"
    },
    {
      "inputs": [
        {
          "internalType": "address",
          "name": "_l1Token",
          "type": "address"
        },
        {
          "internalType": "string",
          "name": "_name",
          "type": "string"
        },
        {
          "internalType": "string",
          "name": "_symbol",
          "type": "string"
        }
      ],
      "name": "createStandardL2ERC721",
      "outputs": [],
      "stateMutability": "nonpayable",
      "type": "function"
    },
    {
      "inputs": [
        {
          "internalType": "address",
          "name": "",
          "type": "address"
        }
      ],
      "name": "isStandardERC721",
      "outputs": [
        {
          "internalType": "bool",
          "name": "",
          "type": "bool"
        }
      ],
      "stateMutability": "view",
      "type": "function"
    }
  ],
  "bytecode": "0x608060405234801561001057600080fd5b50613028806100206000396000f3fe608060405234801561001057600080fd5b50600436106100365760003560e01c8063c01e5d8a1461003b578063f3aaebd614610050575b600080fd5b61004e6100493660046102ec565b610087565b005b61007361005e366004610360565b60006020819052908152604090205460ff1681565b604051901515815260200160405180910390f35b73ffffffffffffffffffffffffffffffffffffffff8316610108576040517f08c379a000000000000000000000000000000000000000000000000000000000815260206004820152601d60248201527f4d7573742070726f76696465204c3120746f6b656e2061646472657373000000604482015260640160405180910390fd5b600073420000000000000000000000000000000000004384848460405161012e906101dc565b61013b94939291906103ed565b604051809103906000f080158015610157573d6000803e3d6000fd5b5073ffffffffffffffffffffffffffffffffffffffff80821660008181526020819052604080822080547fffffffffffffffffffffffffffffffffffffffffffffffffffffffffffffff00166001179055519394509092918716917f83620491293188d96f55f51c346366e55fe2e5c281e285862b615ba7668dc1ee9190a350505050565b612baf8061044483390190565b803573ffffffffffffffffffffffffffffffffffffffff8116811461020d57600080fd5b919050565b7f4e487b7100000000000000000000000000000000000000000000000000000000600052604160045260246000fd5b600082601f83011261025257600080fd5b813567ffffffffffffffff8082111561026d5761026d610212565b604051601f83017fffffffffffffffffffffffffffffffffffffffffffffffffffffffffffffffe0908116603f011681019082821181831017156102b3576102b3610212565b816040528381528660208588010111156102cc57600080fd5b836020870160208301376000602085830101528094505050505092915050565b60008060006060848603121561030157600080fd5b61030a846101e9565b9250602084013567ffffffffffffffff8082111561032757600080fd5b61033387838801610241565b9350604086013591508082111561034957600080fd5b5061035686828701610241565b9150509250925092565b60006020828403121561037257600080fd5b61037b826101e9565b9392505050565b6000815180845260005b818110156103a85760208185018101518683018201520161038c565b818111156103ba576000602083870101525b50601f017fffffffffffffffffffffffffffffffffffffffffffffffffffffffffffffffe0169290920160200192915050565b600073ffffffffffffffffffffffffffffffffffffffff8087168352808616602084015250608060408301526104266080830185610382565b82810360608401526104388185610382565b97965050505050505056fe60806040523480156200001157600080fd5b5060405162002baf38038062002baf833981016040819052620000349162000301565b8151829082906200004d90600190602085019062000171565b5080516200006390600290602084019062000171565b5050600880546001600160a01b038087166001600160a01b031992831617909255600980549288169290911691909117905550620000b760007317ec8597ff92c3f44523bdc65bf0f1be632917ff620000c1565b50505050620003ce565b620000cd8282620000d1565b5050565b6000828152602081815260408083206001600160a01b038516845290915290205460ff16620000cd576000828152602081815260408083206001600160a01b03851684529091529020805460ff191660011790556200012d3390565b6001600160a01b0316816001600160a01b0316837f2f8788117e7eff1d82e926ec794901d17c78024a50270940304540a733656f0d60405160405180910390a45050565b8280546200017f9062000391565b90600052602060002090601f016020900481019282620001a35760008555620001ee565b82601f10620001be57805160ff1916838001178555620001ee565b82800160010185558215620001ee579182015b82811115620001ee578251825591602001919060010190620001d1565b50620001fc92915062000200565b5090565b5b80821115620001fc576000815560010162000201565b80516001600160a01b03811681146200022f57600080fd5b919050565b634e487b7160e01b600052604160045260246000fd5b600082601f8301126200025c57600080fd5b81516001600160401b038082111562000279576200027962000234565b604051601f8301601f19908116603f01168101908282118183101715620002a457620002a462000234565b81604052838152602092508683858801011115620002c157600080fd5b600091505b83821015620002e55785820183015181830184015290820190620002c6565b83821115620002f75760008385830101525b9695505050505050565b600080600080608085870312156200031857600080fd5b620003238562000217565b9350620003336020860162000217565b60408601519093506001600160401b03808211156200035157600080fd5b6200035f888389016200024a565b935060608701519150808211156200037657600080fd5b5062000385878288016200024a565b91505092959194509250565b600181811c90821680620003a657607f821691505b60208210811415620003c857634e487b7160e01b600052602260045260246000fd5b50919050565b6127d180620003de6000396000f3fe608060405234801561001057600080fd5b50600436106101ae5760003560e01c806370a08231116100ee578063ae1f6aaf11610097578063c87b56dd11610071578063c87b56dd146103b2578063d547741f146103c5578063d547cfb7146103d8578063e985e9c5146103e057600080fd5b8063ae1f6aaf14610379578063b88d4fde1461038c578063c01e1bd61461039f57600080fd5b80639dc29fac116100c85780639dc29fac1461034b578063a217fddf1461035e578063a22cb4651461036657600080fd5b806370a08231146102f957806391d148541461030c57806395d89b411461034357600080fd5b8063248a9ca31161015b57806340c10f191161013557806340c10f19146102ad57806342842e0e146102c057806355f804b3146102d35780636352211e146102e657600080fd5b8063248a9ca3146102565780632f2ff15d1461028757806336568abe1461029a57600080fd5b8063095ea7b31161018c578063095ea7b31461021b578063162094c41461023057806323b872dd1461024357600080fd5b806301ffc9a7146101b357806306fdde03146101db578063081812fc146101f0575b600080fd5b6101c66101c13660046120e6565b61041c565b60405190151581526020015b60405180910390f35b6101e36104eb565b6040516101d29190612179565b6102036101fe36600461218c565b61057d565b6040516001600160a01b0390911681526020016101d2565b61022e6102293660046121c1565b610628565b005b61022e61023e3660046122ce565b61075a565b61022e610251366004612315565b610770565b61027961026436600461218c565b60009081526020819052604090206001015490565b6040519081526020016101d2565b61022e610295366004612351565b6107f7565b61022e6102a8366004612351565b61081d565b61022e6102bb3660046121c1565b6108a9565b61022e6102ce366004612315565b610954565b61022e6102e136600461237d565b61096f565b6102036102f436600461218c565b61098e565b6102796103073660046123b2565b610a1f565b6101c661031a366004612351565b6000918252602082815260408084206001600160a01b0393909316845291905290205460ff1690565b6101e3610ab9565b61022e6103593660046121c1565b610ac8565b610279600081565b61022e6103743660046123cd565b610b66565b600954610203906001600160a01b031681565b61022e61039a366004612409565b610c49565b600854610203906001600160a01b031681565b6101e36103c036600461218c565b610cd7565b61022e6103d3366004612351565b610e55565b6101e3610e7b565b6101c66103ee366004612485565b6001600160a01b03918216600090815260066020908152604080832093909416825291909152205460ff1690565b60007f01ffc9a7a5cef8baa21ed3c5c0d7e23accb804b619e9333b597f47a0d84076e27f1d1d8b63000000000000000000000000000000000000000000000000000000007fffffffff0000000000000000000000000000000000000000000000000000000084167f01ffc9a70000000000000000000000000000000000000000000000000000000014806104d457507fffffffff00000000000000000000000000000000000000000000000000000000848116908216145b806104e357506104e384610f09565b949350505050565b6060600180546104fa906124af565b80601f0160208091040260200160405190810160405280929190818152602001828054610526906124af565b80156105735780601f1061054857610100808354040283529160200191610573565b820191906000526020600020905b81548152906001019060200180831161055657829003601f168201915b5050505050905090565b6000818152600360205260408120546001600160a01b031661060c5760405162461bcd60e51b815260206004820152602c60248201527f4552433732313a20617070726f76656420717565727920666f72206e6f6e657860448201527f697374656e7420746f6b656e000000000000000000000000000000000000000060648201526084015b60405180910390fd5b506000908152600560205260409020546001600160a01b031690565b60006106338261098e565b9050806001600160a01b0316836001600160a01b031614156106bd5760405162461bcd60e51b815260206004820152602160248201527f4552433732313a20617070726f76616c20746f2063757272656e74206f776e6560448201527f72000000000000000000000000000000000000000000000000000000000000006064820152608401610603565b336001600160a01b03821614806106d957506106d981336103ee565b61074b5760405162461bcd60e51b815260206004820152603860248201527f4552433732313a20617070726f76652063616c6c6572206973206e6f74206f7760448201527f6e6572206e6f7220617070726f76656420666f7220616c6c00000000000000006064820152608401610603565b6107558383610fab565b505050565b60006107668133611031565b61075583836110cd565b61077a3382611176565b6107ec5760405162461bcd60e51b815260206004820152603160248201527f4552433732313a207472616e736665722063616c6c6572206973206e6f74206f60448201527f776e6572206e6f7220617070726f7665640000000000000000000000000000006064820152608401610603565b61075583838361127a565b6000828152602081905260409020600101546108138133611031565b610755838361145f565b6001600160a01b038116331461089b5760405162461bcd60e51b815260206004820152602f60248201527f416363657373436f6e74726f6c3a2063616e206f6e6c792072656e6f756e636560448201527f20726f6c657320666f722073656c6600000000000000000000000000000000006064820152608401610603565b6108a5828261151b565b5050565b6009546001600160a01b031633146109035760405162461bcd60e51b815260206004820181905260248201527f4f6e6c79204c32204272696467652063616e206d696e7420616e64206275726e6044820152606401610603565b61090d82826115b8565b816001600160a01b03167f0f6798a560793a54c3bcfe86a93cde1e73087d944c0ea20544137d41213968858260405161094891815260200190565b60405180910390a25050565b61075583838360405180602001604052806000815250610c49565b600061097b8133611031565b815161075590600a906020850190611fe9565b6000818152600360205260408120546001600160a01b031680610a195760405162461bcd60e51b815260206004820152602960248201527f4552433732313a206f776e657220717565727920666f72206e6f6e657869737460448201527f656e7420746f6b656e00000000000000000000000000000000000000000000006064820152608401610603565b92915050565b60006001600160a01b038216610a9d5760405162461bcd60e51b815260206004820152602a60248201527f4552433732313a2062616c616e636520717565727920666f7220746865207a6560448201527f726f2061646472657373000000000000000000000000000000000000000000006064820152608401610603565b506001600160a01b031660009081526004602052604090205490565b6060600280546104fa906124af565b6009546001600160a01b03163314610b225760405162461bcd60e51b815260206004820181905260248201527f4f6e6c79204c32204272696467652063616e206d696e7420616e64206275726e6044820152606401610603565b610b2b816115d2565b816001600160a01b03167fcc16f5dbb4873280815c1ee09dbd06736cffcc184412cf7a71a0fdb75d397ca58260405161094891815260200190565b6001600160a01b038216331415610bbf5760405162461bcd60e51b815260206004820152601960248201527f4552433732313a20617070726f766520746f2063616c6c6572000000000000006044820152606401610603565b3360008181526006602090815260408083206001600160a01b0387168085529083529281902080547fffffffffffffffffffffffffffffffffffffffffffffffffffffffffffffff001686151590811790915590519081529192917f17307eab39ab6107e8899845ad3d59bd9653f200f220920489ca2b5937696c31910160405180910390a35050565b610c533383611176565b610cc55760405162461bcd60e51b815260206004820152603160248201527f4552433732313a207472616e736665722063616c6c6572206973206e6f74206f60448201527f776e6572206e6f7220617070726f7665640000000000000000000000000000006064820152608401610603565b610cd184848484611615565b50505050565b6000818152600360205260409020546060906001600160a01b0316610d645760405162461bcd60e51b815260206004820152603160248201527f45524337323155524953746f726167653a2055524920717565727920666f722060448201527f6e6f6e6578697374656e7420746f6b656e0000000000000000000000000000006064820152608401610603565b60008281526007602052604081208054610d7d906124af565b80601f0160208091040260200160405190810160405280929190818152602001828054610da9906124af565b8015610df65780601f10610dcb57610100808354040283529160200191610df6565b820191906000526020600020905b815481529060010190602001808311610dd957829003601f168201915b505050505090506000610e0761169e565b9050805160001415610e1a575092915050565b815115610e4c578082604051602001610e34929190612503565b60405160208183030381529060405292505050919050565b6104e3846116ad565b600082815260208190526040902060010154610e718133611031565b610755838361151b565b600a8054610e88906124af565b80601f0160208091040260200160405190810160405280929190818152602001828054610eb4906124af565b8015610f015780601f10610ed657610100808354040283529160200191610f01565b820191906000526020600020905b815481529060010190602001808311610ee457829003601f168201915b505050505081565b60007fffffffff0000000000000000000000000000000000000000000000000000000082167f80ac58cd000000000000000000000000000000000000000000000000000000001480610f9c57507fffffffff0000000000000000000000000000000000000000000000000000000082167f5b5e139f00000000000000000000000000000000000000000000000000000000145b80610a195750610a1982611796565b600081815260056020526040902080547fffffffffffffffffffffffff0000000000000000000000000000000000000000166001600160a01b0384169081179091558190610ff88261098e565b6001600160a01b03167f8c5be1e5ebec7d5bd14f71427d1e84f3dd0314c0f7b2291e5b200ac8c7c3b92560405160405180910390a45050565b6000828152602081815260408083206001600160a01b038516845290915290205460ff166108a55761106d816001600160a01b0316601461182d565b61107883602061182d565b604051602001611089929190612532565b604080517fffffffffffffffffffffffffffffffffffffffffffffffffffffffffffffffe08184030181529082905262461bcd60e51b825261060391600401612179565b6000828152600360205260409020546001600160a01b03166111575760405162461bcd60e51b815260206004820152602e60248201527f45524337323155524953746f726167653a2055524920736574206f66206e6f6e60448201527f6578697374656e7420746f6b656e0000000000000000000000000000000000006064820152608401610603565b6000828152600760209081526040909120825161075592840190611fe9565b6000818152600360205260408120546001600160a01b03166112005760405162461bcd60e51b815260206004820152602c60248201527f4552433732313a206f70657261746f7220717565727920666f72206e6f6e657860448201527f697374656e7420746f6b656e00000000000000000000000000000000000000006064820152608401610603565b600061120b8361098e565b9050806001600160a01b0316846001600160a01b031614806112465750836001600160a01b031661123b8461057d565b6001600160a01b0316145b806104e357506001600160a01b0380821660009081526006602090815260408083209388168352929052205460ff166104e3565b826001600160a01b031661128d8261098e565b6001600160a01b0316146113095760405162461bcd60e51b815260206004820152602960248201527f4552433732313a207472616e73666572206f6620746f6b656e2074686174206960448201527f73206e6f74206f776e00000000000000000000000000000000000000000000006064820152608401610603565b6001600160a01b0382166113845760405162461bcd60e51b8152602060048201526024808201527f4552433732313a207472616e7366657220746f20746865207a65726f2061646460448201527f72657373000000000000000000000000000000000000000000000000000000006064820152608401610603565b61138f600082610fab565b6001600160a01b03831660009081526004602052604081208054600192906113b89084906125e2565b90915550506001600160a01b03821660009081526004602052604081208054600192906113e69084906125f9565b909155505060008181526003602052604080822080547fffffffffffffffffffffffff0000000000000000000000000000000000000000166001600160a01b0386811691821790925591518493918716917fddf252ad1be2c89b69c2b068fc378daa952ba7f163c4a11628f55a4df523b3ef91a4505050565b6000828152602081815260408083206001600160a01b038516845290915290205460ff166108a5576000828152602081815260408083206001600160a01b0385168452909152902080547fffffffffffffffffffffffffffffffffffffffffffffffffffffffffffffff001660011790556114d73390565b6001600160a01b0316816001600160a01b0316837f2f8788117e7eff1d82e926ec794901d17c78024a50270940304540a733656f0d60405160405180910390a45050565b6000828152602081815260408083206001600160a01b038516845290915290205460ff16156108a5576000828152602081815260408083206001600160a01b038516808552925280832080547fffffffffffffffffffffffffffffffffffffffffffffffffffffffffffffff0016905551339285917ff6391f5c32d9c69d2a47ea670b442974b53935d1edc7fd64eb21e047a839171b9190a45050565b6108a5828260405180602001604052806000815250611a56565b6115db81611adf565b600081815260076020526040902080546115f4906124af565b1590506116125760008181526007602052604081206116129161206d565b50565b61162084848461127a565b61162c84848484611b92565b610cd15760405162461bcd60e51b815260206004820152603260248201527f4552433732313a207472616e7366657220746f206e6f6e20455243373231526560448201527f63656976657220696d706c656d656e74657200000000000000000000000000006064820152608401610603565b6060600a80546104fa906124af565b6000818152600360205260409020546060906001600160a01b031661173a5760405162461bcd60e51b815260206004820152602f60248201527f4552433732314d657461646174613a2055524920717565727920666f72206e6f60448201527f6e6578697374656e7420746f6b656e00000000000000000000000000000000006064820152608401610603565b600061174461169e565b90506000815111611764576040518060200160405280600081525061178f565b8061176e84611d5d565b60405160200161177f929190612503565b6040516020818303038152906040525b9392505050565b60007fffffffff0000000000000000000000000000000000000000000000000000000082167f7965db0b000000000000000000000000000000000000000000000000000000001480610a1957507f01ffc9a7000000000000000000000000000000000000000000000000000000007fffffffff00000000000000000000000000000000000000000000000000000000831614610a19565b6060600061183c836002612611565b6118479060026125f9565b67ffffffffffffffff81111561185f5761185f6121eb565b6040519080825280601f01601f191660200182016040528015611889576020820181803683370190505b5090507f3000000000000000000000000000000000000000000000000000000000000000816000815181106118c0576118c061264e565b60200101907effffffffffffffffffffffffffffffffffffffffffffffffffffffffffffff1916908160001a9053507f7800000000000000000000000000000000000000000000000000000000000000816001815181106119235761192361264e565b60200101907effffffffffffffffffffffffffffffffffffffffffffffffffffffffffffff1916908160001a905350600061195f846002612611565b61196a9060016125f9565b90505b6001811115611a07577f303132333435363738396162636465660000000000000000000000000000000085600f16601081106119ab576119ab61264e565b1a60f81b8282815181106119c1576119c161264e565b60200101907effffffffffffffffffffffffffffffffffffffffffffffffffffffffffffff1916908160001a90535060049490941c93611a008161267d565b905061196d565b50831561178f5760405162461bcd60e51b815260206004820181905260248201527f537472696e67733a20686578206c656e67746820696e73756666696369656e746044820152606401610603565b611a608383611e8f565b611a6d6000848484611b92565b6107555760405162461bcd60e51b815260206004820152603260248201527f4552433732313a207472616e7366657220746f206e6f6e20455243373231526560448201527f63656976657220696d706c656d656e74657200000000000000000000000000006064820152608401610603565b6000611aea8261098e565b9050611af7600083610fab565b6001600160a01b0381166000908152600460205260408120805460019290611b209084906125e2565b909155505060008281526003602052604080822080547fffffffffffffffffffffffff0000000000000000000000000000000000000000169055518391906001600160a01b038416907fddf252ad1be2c89b69c2b068fc378daa952ba7f163c4a11628f55a4df523b3ef908390a45050565b60006001600160a01b0384163b15611d52576040517f150b7a020000000000000000000000000000000000000000000000000000000081526001600160a01b0385169063150b7a0290611bef9033908990889088906004016126b2565b602060405180830381600087803b158015611c0957600080fd5b505af1925050508015611c57575060408051601f3d9081017fffffffffffffffffffffffffffffffffffffffffffffffffffffffffffffffe0168201909252611c54918101906126ee565b60015b611d07573d808015611c85576040519150601f19603f3d011682016040523d82523d6000602084013e611c8a565b606091505b508051611cff5760405162461bcd60e51b815260206004820152603260248201527f4552433732313a207472616e7366657220746f206e6f6e20455243373231526560448201527f63656976657220696d706c656d656e74657200000000000000000000000000006064820152608401610603565b805181602001fd5b7fffffffff00000000000000000000000000000000000000000000000000000000167f150b7a02000000000000000000000000000000000000000000000000000000001490506104e3565b506001949350505050565b606081611d9d57505060408051808201909152600181527f3000000000000000000000000000000000000000000000000000000000000000602082015290565b8160005b8115611dc75780611db18161270b565b9150611dc09050600a83612773565b9150611da1565b60008167ffffffffffffffff811115611de257611de26121eb565b6040519080825280601f01601f191660200182016040528015611e0c576020820181803683370190505b5090505b84156104e357611e216001836125e2565b9150611e2e600a86612787565b611e399060306125f9565b60f81b818381518110611e4e57611e4e61264e565b60200101907effffffffffffffffffffffffffffffffffffffffffffffffffffffffffffff1916908160001a905350611e88600a86612773565b9450611e10565b6001600160a01b038216611ee55760405162461bcd60e51b815260206004820181905260248201527f4552433732313a206d696e7420746f20746865207a65726f20616464726573736044820152606401610603565b6000818152600360205260409020546001600160a01b031615611f4a5760405162461bcd60e51b815260206004820152601c60248201527f4552433732313a20746f6b656e20616c7265616479206d696e746564000000006044820152606401610603565b6001600160a01b0382166000908152600460205260408120805460019290611f739084906125f9565b909155505060008181526003602052604080822080547fffffffffffffffffffffffff0000000000000000000000000000000000000000166001600160a01b03861690811790915590518392907fddf252ad1be2c89b69c2b068fc378daa952ba7f163c4a11628f55a4df523b3ef908290a45050565b828054611ff5906124af565b90600052602060002090601f016020900481019282612017576000855561205d565b82601f1061203057805160ff191683800117855561205d565b8280016001018555821561205d579182015b8281111561205d578251825591602001919060010190612042565b506120699291506120a3565b5090565b508054612079906124af565b6000825580601f10612089575050565b601f01602090049060005260206000209081019061161291905b5b8082111561206957600081556001016120a4565b7fffffffff000000000000000000000000000000000000000000000000000000008116811461161257600080fd5b6000602082840312156120f857600080fd5b813561178f816120b8565b60005b8381101561211e578181015183820152602001612106565b83811115610cd15750506000910152565b60008151808452612147816020860160208601612103565b601f017fffffffffffffffffffffffffffffffffffffffffffffffffffffffffffffffe0169290920160200192915050565b60208152600061178f602083018461212f565b60006020828403121561219e57600080fd5b5035919050565b80356001600160a01b03811681146121bc57600080fd5b919050565b600080604083850312156121d457600080fd5b6121dd836121a5565b946020939093013593505050565b7f4e487b7100000000000000000000000000000000000000000000000000000000600052604160045260246000fd5b600067ffffffffffffffff80841115612235576122356121eb565b604051601f85017fffffffffffffffffffffffffffffffffffffffffffffffffffffffffffffffe0908116603f0116810190828211818310171561227b5761227b6121eb565b8160405280935085815286868601111561229457600080fd5b858560208301376000602087830101525050509392505050565b600082601f8301126122bf57600080fd5b61178f8383356020850161221a565b600080604083850312156122e157600080fd5b82359150602083013567ffffffffffffffff8111156122ff57600080fd5b61230b858286016122ae565b9150509250929050565b60008060006060848603121561232a57600080fd5b612333846121a5565b9250612341602085016121a5565b9150604084013590509250925092565b6000806040838503121561236457600080fd5b82359150612374602084016121a5565b90509250929050565b60006020828403121561238f57600080fd5b813567ffffffffffffffff8111156123a657600080fd5b6104e3848285016122ae565b6000602082840312156123c457600080fd5b61178f826121a5565b600080604083850312156123e057600080fd5b6123e9836121a5565b9150602083013580151581146123fe57600080fd5b809150509250929050565b6000806000806080858703121561241f57600080fd5b612428856121a5565b9350612436602086016121a5565b925060408501359150606085013567ffffffffffffffff81111561245957600080fd5b8501601f8101871361246a57600080fd5b6124798782356020840161221a565b91505092959194509250565b6000806040838503121561249857600080fd5b6124a1836121a5565b9150612374602084016121a5565b600181811c908216806124c357607f821691505b602082108114156124fd577f4e487b7100000000000000000000000000000000000000000000000000000000600052602260045260246000fd5b50919050565b60008351612515818460208801612103565b835190830190612529818360208801612103565b01949350505050565b7f416363657373436f6e74726f6c3a206163636f756e742000000000000000000081526000835161256a816017850160208801612103565b7f206973206d697373696e6720726f6c652000000000000000000000000000000060179184019182015283516125a7816028840160208801612103565b01602801949350505050565b7f4e487b7100000000000000000000000000000000000000000000000000000000600052601160045260246000fd5b6000828210156125f4576125f46125b3565b500390565b6000821982111561260c5761260c6125b3565b500190565b6000817fffffffffffffffffffffffffffffffffffffffffffffffffffffffffffffffff0483118215151615612649576126496125b3565b500290565b7f4e487b7100000000000000000000000000000000000000000000000000000000600052603260045260246000fd5b60008161268c5761268c6125b3565b507fffffffffffffffffffffffffffffffffffffffffffffffffffffffffffffffff0190565b60006001600160a01b038087168352808616602084015250836040830152608060608301526126e4608083018461212f565b9695505050505050565b60006020828403121561270057600080fd5b815161178f816120b8565b60007fffffffffffffffffffffffffffffffffffffffffffffffffffffffffffffffff82141561273d5761273d6125b3565b5060010190565b7f4e487b7100000000000000000000000000000000000000000000000000000000600052601260045260246000fd5b60008261278257612782612744565b500490565b60008261279657612796612744565b50069056fea26469706673582212204d9ddff8ad483fb265c52d58685a96efa2f222f8ead976cd3f115955fc42c1e064736f6c63430008090033a2646970667358221220c7c0994c67c51543e08d273e24151ac380c71d91b6c9af0741c83cc01a4a921264736f6c63430008090033",
  "linkReferences": {},
  "deployedLinkReferences": {}
}